:400000000080002011000000CD040000CD04000010B500F063FAC04610B512221E4B1A60302000F0D9FB1D4A1D4B1A6000241D4B1C601D4B1D4A1A60C02189001C4A11608A
:400040001C4A1A60E82149011B4A11601B4A1A60822212061A4B1A608022D202194B1A604022194B1A60412318490B6018490B6018490A6018490A60184A13604222184B3B
:400080001A601849082000F0CFFA082000F0C0FA154B1C6010BDC046300010400600008004010B40000301400000014040FF00800403014041FF00800803014042FF008054
:4000C00008010B4000010B40400101403C0101403801014034010140300101402C01014028010140790A00000C020B4010B572B60122324B1A7000240FE031486200131919
:4001000059000B00411889881A5AC31858880004104300F0A3F90134E4B2012CEDD9284801000C314C3000F07FF9EE221202254B1A6099231B04244A1360244A1360244A76
:400140001360244A1360244A1360244A1360244A244B1A60244A254B1A60254A254B1A600722254B1A60254B1A602549087806230343DBB20B702349234B19602349244BD1
:40018000196080218900234B1960C139FF39224B1960224B1A60224B1A60D8221201214B1A6090221202204B1A60C022D2001F4B1A60FFF731FF00F067F910BD1C700F407B
:4001C0000C1200000003024000500F4010500F4020500F4040500F4060500F4070500F40E0000D002001204090000B00E0012040A0000C00200220402000104000800F40EB
:4002000000700F404992000008000440B66D1B00080B0440080104400C010440000204401802044008030440080504400C05044010B5064C2378002B07D1054B002B02D00A
:40024000044800E000BF0123237010BD4801002000000000EC110000084B10B5002B03D00749084800E000BF07480368002B00D110BD064B002BFBD09847F9E700000000CB
:400280004C010020EC110000C00000200000000001607047002305E09900044A8A1804480A500133022BF7DD7047C046CC010020B401002010B5074800F0B6FD064B074A98
:4002C0001A60074A5A60074B074A1A60074A5A6010BDC046F0110000D80100204D030000CC010020C001002009040000B401002010B500F0F3FD00F0DFFC00210548FFF7B0
:40030000C7FFFFF7C7FFFFF7D5FF034800F026F810BDC046E4010020D801002010B562B6FFF7E6FF064800F019F8054800F016F8044B186800F052F8034800F075FDF4E764
:40034000C001002064010020FC110000002302E09A0013500133022BFADD7047084B1B68002B06D1064B1860064B18600023836005E0044B1A6890601860002383607047CE
:400380006401002068010020002810D00C4B1A68002A0ED090420ED09368984201D10CE01A00936899680029FAD1100006E0002004E0002002E0002000E010007047C04630
:4003C0006401002010B50400FFF7DEFF002801D0002383600023A36010BDC04610B5041E0ED0406823689847A368002B03D10022044B1A6001E0034A13602000FFF7E2FF80
:4004000010BDC0466401002010B50021002000F075FD0021012000F071FD024800F004FD10BDC04600120000F0B50025002711E0BB00C658F3B2FF22964308E06A008A18EE
:400440001478A419527822700135013BDBB2002BF4D10137032FEBD9F0BDC04610B50A00002100F0BBFE10BD064B1B68002803D080221206134301E05B005B08014A136065
:400480007047C04680033A4010B50323094A1360094A136080221206084B1A600723084A1360084A13600022074B1A600120FFF7DBFF10BD300030403000314000003A4069
:4004C00000033A4040033A40000E3F4010B500F059FE03680C2B00D1FEE7FEE770B50F4E0F4D13E029686B68AC68002202E001C901C30432A242FAD1E868002202E00021B7
:4005000002C304328242FAD11035013E002EE9D100F03EFEFFF702FFFEE7C04601000000E812000010B50E4A136801218B43136000230AE0032B03D89A000A49505800E036
:4005400009489900094A885001332F2BF2D9FFF7CDFD034A116801230B43136010BDC0460000104000000000CD04000000000020024A1168024B0B401360704700002240A5
:40058000FFFFFFBF034B18688023DB05184000D001207047000022400A4A136801218B431360094B1A681E318A43084802601A688A4317390A431A60054A116802230B4355
:4005C0001360704750000C4034FF0B406C01002024002C40064A136802218B43136005490B681F229343044A126813430B60704724002C4034FF0B406C010020034B1B68E7
:400600000220184000D001207047C04624002C401F2318401E3B8340014A13607047C04600E100E001BE704770B504000D001F2802D90020FFF7F6FF1034A40080239B050C
:400640009C4664442068256070BDC04670B504000E00032902D90020FFF7E4FF1F2C02D90020FFF7DFFF03252540ED00063500F06CFCA408A400074B9C4664442168032377
:40068000AB4099430B003100A9401943216000F060FC70BD00E400E010B5040006E0084B586800F049FC074B9C46644480231B029C42F4D8024B9868604300F03DFC10BD11
:4006C000C40000200080FFFF30B583B000F07EF900285FD000F039FC04002F4A116801230B43136000230AE02C4A12683F210A402B49C95C8A4201D1033303E001332D2B3F
:40070000F2D90323274A1268D20606D1254802681F218A4313390A430260234A1168234A0A40234959438020C00184466144C90B01394905490D0A43A02149031143080072
:40074000192B02D81B4B1A430EE01B4A9A1812781A3B1349C9183023CB5CD318FF2B00D9FF239B0502001A430F4B1A60134D2B680193302000F0F0FB114A13688021C90523
:400780000B4313601420FFF787FF019B2B60200000F0DFFB03B030BD50000C402CFF0B406812000034FF0B400800224000F800C040420F000000D43F4DF3FF0F3000104079
:4007C0000000224010B5034B1B7B584300F0B4FB10BDC046C4000020F0B55F4656464D464446F0B483B0040000F0AFFB0190FFF7C9FE002804D0FFF7BBFE01239B4601E0A6
:4008000000239B46FFF7FAFE002807D0182C01D0302C05D1FFF7DEFE012502E0002500E00025E71E2D2F00D985E04E4B1B78DBB29C4208D84C4B1B78DBB29A464B4B1B78A6
:40084000DBB2994631E04A4B1B78DBB29C4208D8484B1B78DBB29A46474B1B78DBB2994623E0464B1B78DBB29C4208D8444B1B78DBB29A46434B1B78DBB2994615E0424B54
:400880001B78DBB29C4208D8404B1B78DBB29A463F4B1B78DBB2994607E03E4B1B78DBB29A463D4B1B78DBB299463C4BDB5D98462F2B09D92A2C07D91922394B1A600520E2
:4008C00000F03AFB192603E0354B1E683F231E40464506D9314BDA5D314B1A60052000F02BFB012D05D1302C03D12E4B1B78DBB20CE0012D05D1182C03D12B4B1B78DBB232
:4009000004E0254B9C4664442378DBB2274A1360274B52461A60274B4A461A600520FFF751FF46450AD21D4BDA5D1D4B1A60052000F002FB02E00020FFF774FE5B46012B31
:4009400001D1FFF7C1FE012D01D1FFF725FE019800F0FFFA03B03CBC90469946A246AB46F0BDC04640F3FF0F41F3FF0F42F3FF0F43F3FF0F44F3FF0F45F3FF0F46F3FF0F8D
:4009800047F3FF0F48F3FF0F49F3FF0F4AF3FF0F4BF3FF0F4CF3FF0F4DF3FF0F681200002CFF0B403FF3FF0F3EF3FF0F28FF0B401CFF0B4020FF0B40034B1868C0231B02AB
:4009C000184000D00120704700010B40034B1B68002B01DA012000E0002070470000224010B500F0B2FA044A1368C02109020B43136000F0AEFA10BD00010B4010B500F05D
:400A0000A4FA08490A68084B1A408024E40122430A600A6813408022120213430B6000F098FA10BD00010B40FF3FFFFF70B5050000F08BFA0400FFF7BFFF002803D0FFF7F5
:400A4000DDFF012100E0002108482840084A1568084B2B40184310601368012901D1FFF7BFFF200000F075FA70BDC0460404040010020B40FBFBFBFF10B5244B1B685B0718
:400A800015D5234B5B685B070ED5224B596A042001401F4C62688A4362605A6A82435A629B69002B00D098470420FFF7BFFF174B1B685B0518D5164B5B685B0510D5154B87
:400AC000596A8022D2001140114842688A434260596A114A0A405A62DB69002B00D098478020C000FFF7A2FF084B1B685B030CD5074B5B685B0304D5064B1B6A002B00D091
:400B000098478020C002FFF791FF10BD10020B40D800002088010020FFFBFFFF10B503211120FFF793FD3E491120FFF77DFD07223C4B1A603C4B1B68002B01DA3B4900E0C5
:400B40003B493C4A13680B4313603B4A3B4B1A603B4A3C4B1A6000233B4A13603B4A3C490A603C490A603C4A13603C4A136001223B4B1A603B4A11683B4B0B408021890593
:400B80000B431360002447E03849A2005058DC239B0103400919097B0B4335498C4662441360C30707D52C490A680123A3401B041B0C13430B60A3002C4A9B589B0707D5FE
:400BC00026490A680123A3401B041B0C13430B60A300264A9B589A0502D58020400001E080204001DB0506D443085B421BB262002049535203E0630000211E4A99521E4BE6
:400C000058431E4B9C4660441D4900F0CFF900B2A2001C4BD0500134022CB5D910BDC046D90C000020003A4080033A40602E1013602E001300003A40AC00008004003A407B
:400C40000000FF0718003A401C003A400200020010003A4014003A4028023A4038023A4018023A4030003A40FEFFFFDFB012000080003A4008020020102700007206000024
:400C8000E40C0000FC01002010B5094B1B68002B0CDB084B1B68002BFBDB054A1368802109060B4313600A20FFF78CFD10BDC04600003A4008023A4010B5064B1B78002B19
:400CC00004D1FFF72BFF0122024B1A70FFF7DCFF10BDC046B0010020014B1A681A60704710023A4010B50B4C226860239A4322602268513B9A432260226810230343D8B27B
:400D0000104320600120FFF75DFD236810229343236010BD000B044070B505000E4C226820231343236023684022934323600020FFF748FD23680F229343236022681023A0
:400D40002B43D8B2104320600120FFF73BFD236810229343236070BD000B0440F8B5274A13687F218B43136025490B681B0B1B03244803430B60136820218B431360116895
:400D800040230B431360CA277F000020FFF71AFD1A4C23681026334323600120FFF712FD194B1D682368B34323600020FFF70AFD08231D402368334323600120FFF702FD00
:400DC0002368B3432360002D02D10A20FFF7FAFC013F002D01D0002FD7D1084B1A6840218A431A601A683F318A431A60044A13681B0B1B0305490B431360F8BD000B0440EE
:400E0000080B044049020000040B0440B60D000010B50400FFF7A2FF2009FFF77DFF0F202040FFF779FF10BD70B505000078012404E0FFF7EDFF285D0134E4B20028F8D167
:400E400070BDC04610B50400FFF788FF2009FFF749FF0F202040FFF745FF10BD10B52820FFF71AFC0320FFF73DFF0520FFF714FC0320FFF737FF0F20FFF70EFC0320FFF7CC
:400E800031FF0120FFF708FC0220FFF72BFF0520FFF702FC0620FFF7D5FF0E20FFF7D2FF2C20FFF7CFFF0820FFF7CCFF0120FFF7C9FF0C20FFF7C6FF0320FFF7C3FF0520E8
:400EC000FFF7EAFB10BDC04610B50C20FFF7BAFF0122014B1A7010BDB101002010B5064B5B78002B04D1FFF7B9FF0122024B5A70FFF7EAFF10BDC046B101002010B50128C9
:400F00000BD0002804D002280CD003280FD012E08039C8B2FFF796FF0DE04039C8B2FFF791FF08E06C39C8B2FFF78CFF03E02C39C8B2FFF787FF10BD0230800803D001385B
:400F4000FDD1C046C046C0467047EFF3108072B6704780F31088704770B50400FFF7F5FF0500102C05D8104A136803218B43136016E0202C07D80C490B6803229343023A3C
:400F800013430B600CE0302C07D807490B6803229343013A13430B6002E00020FFF742FB2800FFF7D6FF70BD3000104003460B437FD4002243088B4274D303098B425FD344
:400FC000030A8B4244D3030B8B4228D3030C8B420DD3FF22090212BA030C8B4202D31212090265D0030B8B4219D300E0090AC30B8B4201D3CB03C01A5241830B8B4201D3CE
:401000008B03C01A5241430B8B4201D34B03C01A5241030B8B4201D30B03C01A5241C30A8B4201D3CB02C01A5241830A8B4201D38B02C01A5241430A8B4201D34B02C01AFC
:401040005241030A8B4201D30B02C01A5241CDD2C3098B4201D3CB01C01A524183098B4201D38B01C01A524143098B4201D34B01C01A524103098B4201D30B01C01A52417E
:40108000C3088B4201D3CB00C01A524183088B4201D38B00C01A524143088B4201D34B00C01A5241411A00D201465241104670475DE0CA0F00D04942031000D34042534044
:4010C00000229C4603098B422DD3030A8B4212D3FC22890112BA030A8B420CD3890192118B4208D3890192118B4204D389013AD0921100E08909C3098B4201D3CB01C01AC5
:40110000524183098B4201D38B01C01A524143098B4201D34B01C01A524103098B4201D30B01C01A5241C3088B4201D3CB00C01A524183088B4201D38B00C01A5241D9D2B7
:4011400043088B4201D34B00C01A5241411A00D20146634652415B10104601D34042002B00D54942704763465B1000D3404201B5002000F005F802BD0029F8D016E7704732
:401180007047C046014B18687047C046400100200E4B70B500251E000D4CE41AA410A54204D0AB00F35898470135F8E700F08AF8084B00251E00084CE41AA410A54204D04E
:4011C000AB00F35898470135F8E770BDD0120000D0120000D0120000D812000003008218934202D019700133FAE770470000000054434220496E6974000000004869000071
:4012000048656C6C6F576F726C64000000300F40000800400F40000809040C0268026D087308C230DAC0DC2007089F08C08003440404058009010C02C00FC20C400443048D
:401240004501474048024D80900499809B44A002A101D00FD20C000008400F4003410F4007440F400D450F40030405060708090A0B0C0E0F101112131415161718191B1C2C
:401280001D1E1F2021222325262728292A2B2E2F3031323334350000EEDBC9B9AA9B8E82766B60564D443B332C241D17100A0400000000000000000000000000000102438C
:4012C00000000000F8B5C046F8BC08BC9E4670475902000025050000F8B5C046F8BC08BC9E46704731020000F8120000C000002088000000C800000000000000010000006F
:401300000000C05D80BB000030000000006CDC02F0000000040404000000000000000000000000000000000000000000000000000000000000000000BF120000000000000E
:401340000000000000000000000000000000000000000000000000000000000000000000000000000000000000000000000000000000000000000000E0000020000000006D
:40138000000000000000000000000000000000000000000000000000000000000000000000000000000000000000000000000000000000000000000000000000000000002D
:4013C00000000000000000000000000000000000000000000000000000000000000000000000000000000000000000000000000000000000000000000000000000000000ED
:4014000000000000000000000000000000000000000000000000000000000000000000000000000000000000000000000000000000000000000000000000000000000000AC
:40144000000000000000000000000000000000000000000000000000000000000000000000000000000000000000000000000000000000000000000000000000000000006C
:020000040003F7
:0200000490303A
:02000000308D41
:0200000490402A
:4000000000000000000000000000000000000000000000000000000000000000000000000000000000000000000000000000000000000000000000000000000000000000C0
:400040000000000000000000000000000000000000000000000000000000000000000000000000000000000000000000000000000000000000000000000000000000000080
:0200000490501A
:0C0000000002101311A000011019422D85
:0200000490600A
:0100000001FE
:00000001FF